{
  "contractName": "MyContract",
  "abi": [
    {
      "anonymous": false,
      "inputs": [
        {
          "indexed": false,
          "internalType": "string",
          "name": "name",
          "type": "string"
        },
        {
          "indexed": false,
          "internalType": "string",
          "name": "desc",
          "type": "string"
        },
        {
          "indexed": false,
          "internalType": "string",
          "name": "category",
          "type": "string"
        },
        {
          "indexed": false,
          "internalType": "uint256",
          "name": "price",
          "type": "uint256"
        }
      ],
      "name": "CreateProduct",
      "type": "event"
    },
    {
      "anonymous": false,
      "inputs": [
        {
          "indexed": false,
          "internalType": "string",
          "name": "name",
          "type": "string"
        },
        {
          "indexed": false,
          "internalType": "string",
          "name": "desc",
          "type": "string"
        },
        {
          "indexed": false,
          "internalType": "string",
          "name": "category",
          "type": "string"
        },
        {
          "indexed": false,
          "internalType": "uint256",
          "name": "price",
          "type": "uint256"
        }
      ],
      "name": "EditProduct",
      "type": "event"
    },
    {
      "anonymous": false,
      "inputs": [
        {
          "indexed": false,
          "internalType": "address",
          "name": "_from",
          "type": "address"
        },
        {
          "indexed": false,
          "internalType": "uint256",
          "name": "_amount",
          "type": "uint256"
        }
      ],
      "name": "TransferReceived",
      "type": "event"
    },
    {
      "anonymous": false,
      "inputs": [
        {
          "indexed": false,
          "internalType": "address",
          "name": "_from",
          "type": "address"
        },
        {
          "indexed": false,
          "internalType": "address",
          "name": "_destAddr",
          "type": "address"
        },
        {
          "indexed": false,
          "internalType": "uint256",
          "name": "_amount",
          "type": "uint256"
        }
      ],
      "name": "TransferSent",
      "type": "event"
    },
    {
      "inputs": [
        {
          "internalType": "address",
          "name": "",
          "type": "address"
        }
      ],
      "name": "balances",
      "outputs": [
        {
          "internalType": "uint256",
          "name": "",
          "type": "uint256"
        }
      ],
      "stateMutability": "view",
      "type": "function",
      "constant": true
    },
    {
      "inputs": [
        {
          "internalType": "uint256",
          "name": "",
          "type": "uint256"
        }
      ],
      "name": "productDetail",
      "outputs": [
        {
          "internalType": "address",
          "name": "owner",
          "type": "address"
        },
        {
          "internalType": "string",
          "name": "name",
          "type": "string"
        },
        {
          "internalType": "string",
          "name": "category",
          "type": "string"
        },
        {
          "internalType": "string",
          "name": "photo",
          "type": "string"
        },
        {
          "internalType": "string",
          "name": "description",
          "type": "string"
        },
        {
          "internalType": "uint256",
          "name": "price",
          "type": "uint256"
        }
      ],
      "stateMutability": "view",
      "type": "function",
      "constant": true
    },
    {
      "inputs": [
        {
          "internalType": "address",
          "name": "",
          "type": "address"
        }
      ],
      "name": "wallets",
      "outputs": [
        {
          "internalType": "string",
          "name": "name",
          "type": "string"
        },
        {
          "internalType": "string",
          "name": "photo",
          "type": "string"
        },
        {
          "internalType": "string",
          "name": "email",
          "type": "string"
        },
        {
          "internalType": "string",
          "name": "profesi",
          "type": "string"
        }
      ],
      "stateMutability": "view",
      "type": "function",
      "constant": true
    },
    {
      "inputs": [
        {
          "internalType": "address",
          "name": "destAddr",
          "type": "address"
        }
      ],
      "name": "receive",
      "outputs": [],
      "stateMutability": "payable",
      "type": "function",
      "payable": true
    },
    {
      "inputs": [
        {
          "internalType": "uint256",
          "name": "amount",
          "type": "uint256"
        }
      ],
      "name": "withdraw",
      "outputs": [],
      "stateMutability": "payable",
      "type": "function",
      "payable": true
    },
    {
      "inputs": [
        {
          "internalType": "address",
          "name": "destAddr",
          "type": "address"
        },
        {
          "internalType": "uint256",
          "name": "amount",
          "type": "uint256"
        }
      ],
      "name": "refund",
      "outputs": [],
      "stateMutability": "payable",
      "type": "function",
      "payable": true
    },
    {
      "inputs": [
        {
          "internalType": "uint256",
          "name": "productID",
          "type": "uint256"
        },
        {
          "internalType": "string",
          "name": "_name",
          "type": "string"
        },
        {
          "internalType": "string",
          "name": "_desc",
          "type": "string"
        },
        {
          "internalType": "uint256",
          "name": "_price",
          "type": "uint256"
        },
        {
          "internalType": "string",
          "name": "_category",
          "type": "string"
        },
        {
          "internalType": "string",
          "name": "_photo",
          "type": "string"
        }
      ],
      "name": "addProduct",
      "outputs": [],
      "stateMutability": "nonpayable",
      "type": "function"
    },
    {
      "inputs": [
        {
          "internalType": "uint256",
          "name": "productID",
          "type": "uint256"
        },
        {
          "internalType": "string",
          "name": "_name",
          "type": "string"
        },
        {
          "internalType": "string",
          "name": "_desc",
          "type": "string"
        },
        {
          "internalType": "uint256",
          "name": "_price",
          "type": "uint256"
        },
        {
          "internalType": "string",
          "name": "_category",
          "type": "string"
        },
        {
          "internalType": "string",
          "name": "_photo",
          "type": "string"
        }
      ],
      "name": "editProduct",
      "outputs": [],
      "stateMutability": "nonpayable",
      "type": "function"
    },
    {
      "inputs": [
        {
          "internalType": "string",
          "name": "_name",
          "type": "string"
        },
        {
          "internalType": "string",
          "name": "_photo",
          "type": "string"
        },
        {
          "internalType": "string",
          "name": "_email",
          "type": "string"
        },
        {
          "internalType": "string",
          "name": "_profesi",
          "type": "string"
        }
      ],
      "name": "registerAccount",
      "outputs": [],
      "stateMutability": "nonpayable",
      "type": "function"
    }
  ],
  "bytecode": "0x608060405234801561001057600080fd5b50611801806100206000396000f3fe6080604052600436106100865760003560e01c806342f358851161005957806342f35885146101295780634b4f69fb1461016b57806387bf6e3b1461019457806389b08f11146101bd5780639d01174f146101fd57610086565b806327e235e31461008b5780632e1a7d4d146100c857806332601de3146100e4578063410085df1461010d575b600080fd5b34801561009757600080fd5b506100b260048036038101906100ad9190610ebe565b610219565b6040516100bf9190610f04565b60405180910390f35b6100e260048036038101906100dd9190610f4b565b610231565b005b3480156100f057600080fd5b5061010b600480360381019061010691906110be565b61038e565b005b61012760048036038101906101229190611195565b61043c565b005b34801561013557600080fd5b50610150600480360381019061014b9190610f4b565b6105dd565b6040516101629695949392919061126c565b60405180910390f35b34801561017757600080fd5b50610192600480360381019061018d91906112e9565b610859565b005b3480156101a057600080fd5b506101bb60048036038101906101b691906112e9565b610922565b005b3480156101c957600080fd5b506101e460048036038101906101df9190610ebe565b610a84565b6040516101f494939291906113e6565b60405180910390f35b61021760048036038101906102129190610ebe565b610cd4565b005b60026020528060005260406000206000915090505481565b80600260003373ffffffffffffffffffffffffffffffffffffffff1673ffffffffffffffffffffffffffffffffffffffff1681526020019081526020016000205410156102b3576040517f08c379a00000000000000000000000000000000000000000000000000000000081526004016102aa90611493565b60405180910390fd5b3373ffffffffffffffffffffffffffffffffffffffff166108fc829081150290604051600060405180830381858888f193505050501580156102f9573d6000803e3d6000fd5b5080600260003373ffffffffffffffffffffffffffffffffffffffff1673ffffffffffffffffffffffffffffffffffffffff168152602001908152602001600020600082825461034991906114e2565b925050819055507ffda3a3e0e1479b43cb1c701f7576187f4c4ad80768d627387e00184302f7d88e30338360405161038393929190611516565b60405180910390a150565b6000600160003373ffffffffffffffffffffffffffffffffffffffff1673ffffffffffffffffffffffffffffffffffffffff1681526020019081526020016000209050848160000190805190602001906103e9929190610da9565b5083816001019080519060200190610402929190610da9565b508281600201908051906020019061041b929190610da9565b5081816003019080519060200190610434929190610da9565b505050505050565b80600260008473ffffffffffffffffffffffffffffffffffffffff1673ffffffffffffffffffffffffffffffffffffffff1681526020019081526020016000205410156104be576040517f08c379a00000000000000000000000000000000000000000000000000000000081526004016104b590611599565b60405180910390fd5b60008111610501576040517f08c379a00000000000000000000000000000000000000000000000000000000081526004016104f890611605565b60405180910390fd5b3373ffffffffffffffffffffffffffffffffffffffff166108fc829081150290604051600060405180830381858888f19350505050158015610547573d6000803e3d6000fd5b5080600260008473ffffffffffffffffffffffffffffffffffffffff1673ffffffffffffffffffffffffffffffffffffffff168152602001908152602001600020600082825461059791906114e2565b925050819055507ffda3a3e0e1479b43cb1c701f7576187f4c4ad80768d627387e00184302f7d88e3033836040516105d193929190611516565b60405180910390a15050565b60006020528060005260406000206000915090508060000160009054906101000a900473ffffffffffffffffffffffffffffffffffffffff169080600101805461062690611654565b80601f016020809104026020016040519081016040528092919081815260200182805461065290611654565b801561069f5780601f106106745761010080835404028352916020019161069f565b820191906000526020600020905b81548152906001019060200180831161068257829003601f168201915b5050505050908060020180546106b490611654565b80601f01602080910402602001604051908101604052809291908181526020018280546106e090611654565b801561072d5780601f106107025761010080835404028352916020019161072d565b820191906000526020600020905b81548152906001019060200180831161071057829003601f168201915b50505050509080600301805461074290611654565b80601f016020809104026020016040519081016040528092919081815260200182805461076e90611654565b80156107bb5780601f10610790576101008083540402835291602001916107bb565b820191906000526020600020905b81548152906001019060200180831161079e57829003601f168201915b5050505050908060040180546107d090611654565b80601f01602080910402602001604051908101604052809291908181526020018280546107fc90611654565b80156108495780601f1061081e57610100808354040283529160200191610849565b820191906000526020600020905b81548152906001019060200180831161082c57829003601f168201915b5050505050908060050154905086565b6000806000888152602001908152602001600020905085816001019080519060200190610887929190610da9565b50828160020190805190602001906108a0929190610da9565b50818160030190805190602001906108b9929190610da9565b50848160040190805190602001906108d2929190610da9565b508381600501819055507f2dd901e9f29abbf33ea00f54d83128a60ff1e481b5f73d5af37ff1d5765f1332868685876040516109119493929190611686565b60405180910390a150505050505050565b6040518060c001604052803373ffffffffffffffffffffffffffffffffffffffff1681526020018681526020018381526020018281526020018581526020018481525060008088815260200190815260200160002060008201518160000160006101000a81548173ffffffffffffffffffffffffffffffffffffffff021916908373ffffffffffffffffffffffffffffffffffffffff16021790555060208201518160010190805190602001906109da929190610da9565b5060408201518160020190805190602001906109f7929190610da9565b506060820151816003019080519060200190610a14929190610da9565b506080820151816004019080519060200190610a31929190610da9565b5060a082015181600501559050507ffb9aace11100a4dcdd5b810f99946158982c6a45732056262d3253c4e2952a8585858486604051610a749493929190611686565b60405180910390a1505050505050565b6001602052806000526040600020600091509050806000018054610aa790611654565b80601f0160208091040260200160405190810160405280929190818152602001828054610ad390611654565b8015610b205780601f10610af557610100808354040283529160200191610b20565b820191906000526020600020905b815481529060010190602001808311610b0357829003601f168201915b505050505090806001018054610b3590611654565b80601f0160208091040260200160405190810160405280929190818152602001828054610b6190611654565b8015610bae5780601f10610b8357610100808354040283529160200191610bae565b820191906000526020600020905b815481529060010190602001808311610b9157829003601f168201915b505050505090806002018054610bc390611654565b80601f0160208091040260200160405190810160405280929190818152602001828054610bef90611654565b8015610c3c5780601f10610c1157610100808354040283529160200191610c3c565b820191906000526020600020905b815481529060010190602001808311610c1f57829003601f168201915b505050505090806003018054610c5190611654565b80601f0160208091040260200160405190810160405280929190818152602001828054610c7d90611654565b8015610cca5780601f10610c9f57610100808354040283529160200191610cca565b820191906000526020600020905b815481529060010190602001808311610cad57829003601f168201915b5050505050905084565b60003411610d17576040517f08c379a0000000000000000000000000000000000000000000000000000000008152600401610d0e9061172c565b60405180910390fd5b34600260008373ffffffffffffffffffffffffffffffffffffffff1673ffffffffffffffffffffffffffffffffffffffff1681526020019081526020016000206000828254610d66919061174c565b925050819055507ff1b03f708b9c39f453fe3f0cef84164c7d6f7df836df0796e1e9c2bce6ee397e3334604051610d9e9291906117a2565b60405180910390a150565b828054610db590611654565b90600052602060002090601f016020900481019282610dd75760008555610e1e565b82601f10610df057805160ff1916838001178555610e1e565b82800160010185558215610e1e579182015b82811115610e1d578251825591602001919060010190610e02565b5b509050610e2b9190610e2f565b5090565b5b80821115610e48576000816000905550600101610e30565b5090565b6000604051905090565b600080fd5b600080fd5b600073ffffffffffffffffffffffffffffffffffffffff82169050919050565b6000610e8b82610e60565b9050919050565b610e9b81610e80565b8114610ea657600080fd5b50565b600081359050610eb881610e92565b92915050565b600060208284031215610ed457610ed3610e56565b5b6000610ee284828501610ea9565b91505092915050565b6000819050919050565b610efe81610eeb565b82525050565b6000602082019050610f196000830184610ef5565b92915050565b610f2881610eeb565b8114610f3357600080fd5b50565b600081359050610f4581610f1f565b92915050565b600060208284031215610f6157610f60610e56565b5b6000610f6f84828501610f36565b91505092915050565b600080fd5b600080fd5b6000601f19601f8301169050919050565b7f4e487b7100000000000000000000000000000000000000000000000000000000600052604160045260246000fd5b610fcb82610f82565b810181811067ffffffffffffffff82111715610fea57610fe9610f93565b5b80604052505050565b6000610ffd610e4c565b90506110098282610fc2565b919050565b600067ffffffffffffffff82111561102957611028610f93565b5b61103282610f82565b9050602081019050919050565b82818337600083830152505050565b600061106161105c8461100e565b610ff3565b90508281526020810184848401111561107d5761107c610f7d565b5b61108884828561103f565b509392505050565b600082601f8301126110a5576110a4610f78565b5b81356110b584826020860161104e565b91505092915050565b600080600080608085870312156110d8576110d7610e56565b5b600085013567ffffffffffffffff8111156110f6576110f5610e5b565b5b61110287828801611090565b945050602085013567ffffffffffffffff81111561112357611122610e5b565b5b61112f87828801611090565b935050604085013567ffffffffffffffff8111156111505761114f610e5b565b5b61115c87828801611090565b925050606085013567ffffffffffffffff81111561117d5761117c610e5b565b5b61118987828801611090565b91505092959194509250565b600080604083850312156111ac576111ab610e56565b5b60006111ba85828601610ea9565b92505060206111cb85828601610f36565b9150509250929050565b6111de81610e80565b82525050565b600081519050919050565b600082825260208201905092915050565b60005b8381101561121e578082015181840152602081019050611203565b8381111561122d576000848401525b50505050565b600061123e826111e4565b61124881856111ef565b9350611258818560208601611200565b61126181610f82565b840191505092915050565b600060c08201905061128160008301896111d5565b81810360208301526112938188611233565b905081810360408301526112a78187611233565b905081810360608301526112bb8186611233565b905081810360808301526112cf8185611233565b90506112de60a0830184610ef5565b979650505050505050565b60008060008060008060c0878903121561130657611305610e56565b5b600061131489828a01610f36565b965050602087013567ffffffffffffffff81111561133557611334610e5b565b5b61134189828a01611090565b955050604087013567ffffffffffffffff81111561136257611361610e5b565b5b61136e89828a01611090565b945050606061137f89828a01610f36565b935050608087013567ffffffffffffffff8111156113a05761139f610e5b565b5b6113ac89828a01611090565b92505060a087013567ffffffffffffffff8111156113cd576113cc610e5b565b5b6113d989828a01611090565b9150509295509295509295565b600060808201905081810360008301526114008187611233565b905081810360208301526114148186611233565b905081810360408301526114288185611233565b9050818103606083015261143c8184611233565b905095945050505050565b7f20457863656564656420436c61696d2053616c646f0000000000000000000000600082015250565b600061147d6015836111ef565b915061148882611447565b602082019050919050565b600060208201905081810360008301526114ac81611470565b9050919050565b7f4e487b7100000000000000000000000000000000000000000000000000000000600052601160045260246000fd5b60006114ed82610eeb565b91506114f883610eeb565b92508282101561150b5761150a6114b3565b5b828203905092915050565b600060608201905061152b60008301866111d5565b61153860208301856111d5565b6115456040830184610ef5565b949350505050565b7f20457863656564656420526566756e642053616c646f00000000000000000000600082015250565b60006115836016836111ef565b915061158e8261154d565b602082019050919050565b600060208201905081810360008301526115b281611576565b9050919050565b7f456d70747920457468657273204265696e6720526566756e6465640000000000600082015250565b60006115ef601b836111ef565b91506115fa826115b9565b602082019050919050565b6000602082019050818103600083015261161e816115e2565b9050919050565b7f4e487b7100000000000000000000000000000000000000000000000000000000600052602260045260246000fd5b6000600282049050600182168061166c57607f821691505b602082108114156116805761167f611625565b5b50919050565b600060808201905081810360008301526116a08187611233565b905081810360208301526116b48186611233565b905081810360408301526116c88185611233565b90506116d76060830184610ef5565b95945050505050565b7f456d70747920457468657273204265696e672053656e74000000000000000000600082015250565b60006117166017836111ef565b9150611721826116e0565b602082019050919050565b6000602082019050818103600083015261174581611709565b9050919050565b600061175782610eeb565b915061176283610eeb565b9250827fffffffffffffffffffffffffffffffffffffffffffffffffffffffffffffffff03821115611797576117966114b3565b5b828201905092915050565b60006040820190506117b760008301856111d5565b6117c46020830184610ef5565b939250505056fea264697066735822122006ef5c792edca53f360c823839445fc1dfe11befd81e5afee1069acba45ea4f364736f6c634300080c0033",
  "immutableReferences": {},
  "source": "pragma solidity >=0.7.0 <0.9.0;\npragma experimental ABIEncoderV2;\ncontract MyContract {\n    \n    mapping(uint=>ProductDetail) public productDetail;\n\n    mapping(address=> WalletPerson) public wallets;\n\n    mapping(address=>uint) public balances;\n    event TransferReceived(address _from, uint _amount);\n    event TransferSent(address _from, address _destAddr, uint _amount);\n    event CreateProduct(string name, string desc,string category, uint price);\n    event EditProduct(string name, string desc,string category, uint price);\n    struct ProductDetail{\n        address owner;\n        string name;\n        string category;\n        string photo;\n        string description;\n        uint256 price;\n    }\n    \n    struct WalletPerson{\n        string name;\n        string photo;\n        string email;\n        string profesi;\n    }\n    function receive(address destAddr) external payable{\n        require(msg.value > 0,\"Empty Ethers Being Sent\");\n        balances[destAddr] += msg.value;\n        emit TransferReceived(msg.sender, msg.value);\n    }\n\n    function withdraw(uint amount) public payable {\n        require(balances[msg.sender] >= amount, \" Exceeded Claim Saldo\");\n        payable(msg.sender).transfer(amount);\n        balances[msg.sender] -= amount;\n        emit TransferSent(address(this),msg.sender, amount);\n    }\n\n    function refund(address destAddr,uint amount) external payable{\n        require(balances[destAddr] >= amount, \" Exceeded Refund Saldo\");\n        require(amount > 0,\"Empty Ethers Being Refunded\");\n        payable(msg.sender).transfer(amount);\n        balances[destAddr] -= amount;\n        emit TransferSent(address(this),msg.sender, amount);\n    }\n\n    function addProduct(uint productID,string memory _name,string memory _desc, uint256 _price, string memory _category,\n                        string memory _photo) public {\n        \n        productDetail[productID]= ProductDetail(msg.sender,_name,_category,_photo,_desc,_price);\n        emit CreateProduct(_name,_desc,_category,_price);\n    }\n\n    function editProduct(uint productID,string memory _name,string memory _desc, uint256 _price, string memory _category,\n                        string memory _photo) public {\n        ProductDetail storage prod= productDetail[productID];\n        prod.name = _name;\n        prod.category = _category;\n        prod.photo = _photo;\n        prod.description = _desc;\n        prod.price = _price;\n        emit EditProduct(_name,_desc,_category,_price);\n    }\n    \n    \n\n    function registerAccount(string memory _name,string memory _photo, string memory _email,string memory _profesi) public {\n        WalletPerson storage person= wallets[msg.sender];\n        person.name= _name;\n        person.photo = _photo;\n        person.email = _email;\n        person.profesi= _profesi;\n        \n        // wallets[msg.sender] = WalletPerson({name: _name, gender : Gender.Man, photo : \"\" , email : _email , order: new Order[]()});\n    }\n\n\n  \n\n    \n\n}",
  "sourcePath": "/Users/oscar/Documents/research project jurnal/WebApp/frontend/contracts/MyContract.sol",
  "compiler": {
    "name": "solc",
    "version": "0.8.12+commit.f00d7308.Emscripten.clang"
  },
  "schemaVersion": "3.4.6",
  "updatedAt": "2022-06-13T01:04:32.628Z",
  "networkType": "ethereum",
  "devdoc": {
    "kind": "dev",
    "methods": {},
    "version": 1
  },
  "userdoc": {
    "kind": "user",
    "methods": {},
    "version": 1
  }
}