{
  "contractName": "MyContract",
  "abi": [
    {
      "anonymous": false,
      "inputs": [
        {
          "indexed": false,
          "internalType": "address",
          "name": "_from",
          "type": "address"
        },
        {
          "indexed": false,
          "internalType": "uint256",
          "name": "_amount",
          "type": "uint256"
        }
      ],
      "name": "TransferReceived",
      "type": "event"
    },
    {
      "anonymous": false,
      "inputs": [
        {
          "indexed": false,
          "internalType": "address",
          "name": "_from",
          "type": "address"
        },
        {
          "indexed": false,
          "internalType": "address",
          "name": "_destAddr",
          "type": "address"
        },
        {
          "indexed": false,
          "internalType": "uint256",
          "name": "_amount",
          "type": "uint256"
        }
      ],
      "name": "TransferSent",
      "type": "event"
    },
    {
      "inputs": [
        {
          "internalType": "address",
          "name": "",
          "type": "address"
        }
      ],
      "name": "balances",
      "outputs": [
        {
          "internalType": "uint256",
          "name": "",
          "type": "uint256"
        }
      ],
      "stateMutability": "view",
      "type": "function",
      "constant": true
    },
    {
      "inputs": [
        {
          "internalType": "uint256",
          "name": "",
          "type": "uint256"
        }
      ],
      "name": "productDetail",
      "outputs": [
        {
          "internalType": "uint256",
          "name": "productID",
          "type": "uint256"
        },
        {
          "internalType": "address",
          "name": "owner",
          "type": "address"
        },
        {
          "internalType": "string",
          "name": "name",
          "type": "string"
        },
        {
          "internalType": "string",
          "name": "category",
          "type": "string"
        },
        {
          "internalType": "string",
          "name": "photo",
          "type": "string"
        },
        {
          "internalType": "string",
          "name": "description",
          "type": "string"
        },
        {
          "internalType": "uint256",
          "name": "price",
          "type": "uint256"
        }
      ],
      "stateMutability": "view",
      "type": "function",
      "constant": true
    },
    {
      "inputs": [
        {
          "internalType": "address",
          "name": "",
          "type": "address"
        }
      ],
      "name": "wallets",
      "outputs": [
        {
          "internalType": "string",
          "name": "name",
          "type": "string"
        },
        {
          "internalType": "string",
          "name": "photo",
          "type": "string"
        },
        {
          "internalType": "string",
          "name": "email",
          "type": "string"
        },
        {
          "internalType": "string",
          "name": "profesi",
          "type": "string"
        }
      ],
      "stateMutability": "view",
      "type": "function",
      "constant": true
    },
    {
      "inputs": [
        {
          "internalType": "address",
          "name": "destAddr",
          "type": "address"
        }
      ],
      "name": "receive",
      "outputs": [],
      "stateMutability": "payable",
      "type": "function",
      "payable": true
    },
    {
      "inputs": [
        {
          "internalType": "uint256",
          "name": "amount",
          "type": "uint256"
        }
      ],
      "name": "withdraw",
      "outputs": [],
      "stateMutability": "payable",
      "type": "function",
      "payable": true
    },
    {
      "inputs": [
        {
          "internalType": "address",
          "name": "destAddr",
          "type": "address"
        },
        {
          "internalType": "uint256",
          "name": "amount",
          "type": "uint256"
        }
      ],
      "name": "refund",
      "outputs": [],
      "stateMutability": "payable",
      "type": "function",
      "payable": true
    },
    {
      "inputs": [
        {
          "internalType": "uint256",
          "name": "productID",
          "type": "uint256"
        },
        {
          "internalType": "string",
          "name": "_name",
          "type": "string"
        },
        {
          "internalType": "string",
          "name": "_desc",
          "type": "string"
        },
        {
          "internalType": "uint256",
          "name": "_price",
          "type": "uint256"
        },
        {
          "internalType": "string",
          "name": "_category",
          "type": "string"
        },
        {
          "internalType": "string",
          "name": "_photo",
          "type": "string"
        }
      ],
      "name": "addProduct",
      "outputs": [],
      "stateMutability": "nonpayable",
      "type": "function"
    },
    {
      "inputs": [
        {
          "internalType": "uint256",
          "name": "productID",
          "type": "uint256"
        },
        {
          "internalType": "string",
          "name": "_name",
          "type": "string"
        },
        {
          "internalType": "string",
          "name": "_desc",
          "type": "string"
        },
        {
          "internalType": "uint256",
          "name": "_price",
          "type": "uint256"
        },
        {
          "internalType": "string",
          "name": "_category",
          "type": "string"
        },
        {
          "internalType": "string",
          "name": "_photo",
          "type": "string"
        }
      ],
      "name": "editProduct",
      "outputs": [],
      "stateMutability": "nonpayable",
      "type": "function"
    },
    {
      "inputs": [
        {
          "internalType": "string",
          "name": "_name",
          "type": "string"
        },
        {
          "internalType": "string",
          "name": "_photo",
          "type": "string"
        },
        {
          "internalType": "string",
          "name": "_email",
          "type": "string"
        },
        {
          "internalType": "string",
          "name": "_profesi",
          "type": "string"
        }
      ],
      "name": "registerAccount",
      "outputs": [],
      "stateMutability": "nonpayable",
      "type": "function"
    }
  ],
  "bytecode": "0x608060405234801561001057600080fd5b50611752806100206000396000f3fe6080604052600436106100865760003560e01c806342f358851161005957806342f35885146101295780634b4f69fb1461016c57806387bf6e3b1461019557806389b08f11146101be5780639d01174f146101fe57610086565b806327e235e31461008b5780632e1a7d4d146100c857806332601de3146100e4578063410085df1461010d575b600080fd5b34801561009757600080fd5b506100b260048036038101906100ad9190610e5b565b61021a565b6040516100bf9190610ea1565b60405180910390f35b6100e260048036038101906100dd9190610ee8565b610232565b005b3480156100f057600080fd5b5061010b6004803603810190610106919061105b565b61038f565b005b61012760048036038101906101229190611132565b61043d565b005b34801561013557600080fd5b50610150600480360381019061014b9190610ee8565b6105de565b6040516101639796959493929190611209565b60405180910390f35b34801561017857600080fd5b50610193600480360381019061018e9190611294565b610860565b005b3480156101a157600080fd5b506101bc60048036038101906101b79190611294565b6108ec565b005b3480156101ca57600080fd5b506101e560048036038101906101e09190610e5b565b610a21565b6040516101f59493929190611391565b60405180910390f35b61021860048036038101906102139190610e5b565b610c71565b005b60026020528060005260406000206000915090505481565b80600260003373ffffffffffffffffffffffffffffffffffffffff1673ffffffffffffffffffffffffffffffffffffffff1681526020019081526020016000205410156102b4576040517f08c379a00000000000000000000000000000000000000000000000000000000081526004016102ab9061143e565b60405180910390fd5b3373ffffffffffffffffffffffffffffffffffffffff166108fc829081150290604051600060405180830381858888f193505050501580156102fa573d6000803e3d6000fd5b5080600260003373ffffffffffffffffffffffffffffffffffffffff1673ffffffffffffffffffffffffffffffffffffffff168152602001908152602001600020600082825461034a919061148d565b925050819055507ffda3a3e0e1479b43cb1c701f7576187f4c4ad80768d627387e00184302f7d88e303383604051610384939291906114c1565b60405180910390a150565b6000600160003373ffffffffffffffffffffffffffffffffffffffff1673ffffffffffffffffffffffffffffffffffffffff1681526020019081526020016000209050848160000190805190602001906103ea929190610d46565b5083816001019080519060200190610403929190610d46565b508281600201908051906020019061041c929190610d46565b5081816003019080519060200190610435929190610d46565b505050505050565b80600260008473ffffffffffffffffffffffffffffffffffffffff1673ffffffffffffffffffffffffffffffffffffffff1681526020019081526020016000205410156104bf576040517f08c379a00000000000000000000000000000000000000000000000000000000081526004016104b690611544565b60405180910390fd5b60008111610502576040517f08c379a00000000000000000000000000000000000000000000000000000000081526004016104f9906115b0565b60405180910390fd5b8173ffffffffffffffffffffffffffffffffffffffff166108fc829081150290604051600060405180830381858888f19350505050158015610548573d6000803e3d6000fd5b5080600260008473ffffffffffffffffffffffffffffffffffffffff1673ffffffffffffffffffffffffffffffffffffffff1681526020019081526020016000206000828254610598919061148d565b925050819055507ffda3a3e0e1479b43cb1c701f7576187f4c4ad80768d627387e00184302f7d88e3033836040516105d2939291906114c1565b60405180910390a15050565b60006020528060005260406000206000915090508060000154908060010160009054906101000a900473ffffffffffffffffffffffffffffffffffffffff169080600201805461062d906115ff565b80601f0160208091040260200160405190810160405280929190818152602001828054610659906115ff565b80156106a65780601f1061067b576101008083540402835291602001916106a6565b820191906000526020600020905b81548152906001019060200180831161068957829003601f168201915b5050505050908060030180546106bb906115ff565b80601f01602080910402602001604051908101604052809291908181526020018280546106e7906115ff565b80156107345780601f1061070957610100808354040283529160200191610734565b820191906000526020600020905b81548152906001019060200180831161071757829003601f168201915b505050505090806004018054610749906115ff565b80601f0160208091040260200160405190810160405280929190818152602001828054610775906115ff565b80156107c25780601f10610797576101008083540402835291602001916107c2565b820191906000526020600020905b8154815290600101906020018083116107a557829003601f168201915b5050505050908060050180546107d7906115ff565b80601f0160208091040260200160405190810160405280929190818152602001828054610803906115ff565b80156108505780601f1061082557610100808354040283529160200191610850565b820191906000526020600020905b81548152906001019060200180831161083357829003601f168201915b5050505050908060060154905087565b600080600088815260200190815260200160002090508581600201908051906020019061088e929190610d46565b50828160030190805190602001906108a7929190610d46565b50818160040190805190602001906108c0929190610d46565b50848160050190805190602001906108d9929190610d46565b5083816006018190555050505050505050565b6040518060e001604052808781526020013373ffffffffffffffffffffffffffffffffffffffff168152602001868152602001838152602001828152602001858152602001848152506000808881526020019081526020016000206000820151816000015560208201518160010160006101000a81548173ffffffffffffffffffffffffffffffffffffffff021916908373ffffffffffffffffffffffffffffffffffffffff16021790555060408201518160020190805190602001906109b4929190610d46565b5060608201518160030190805190602001906109d1929190610d46565b5060808201518160040190805190602001906109ee929190610d46565b5060a0820151816005019080519060200190610a0b929190610d46565b5060c08201518160060155905050505050505050565b6001602052806000526040600020600091509050806000018054610a44906115ff565b80601f0160208091040260200160405190810160405280929190818152602001828054610a70906115ff565b8015610abd5780601f10610a9257610100808354040283529160200191610abd565b820191906000526020600020905b815481529060010190602001808311610aa057829003601f168201915b505050505090806001018054610ad2906115ff565b80601f0160208091040260200160405190810160405280929190818152602001828054610afe906115ff565b8015610b4b5780601f10610b2057610100808354040283529160200191610b4b565b820191906000526020600020905b815481529060010190602001808311610b2e57829003601f168201915b505050505090806002018054610b60906115ff565b80601f0160208091040260200160405190810160405280929190818152602001828054610b8c906115ff565b8015610bd95780601f10610bae57610100808354040283529160200191610bd9565b820191906000526020600020905b815481529060010190602001808311610bbc57829003601f168201915b505050505090806003018054610bee906115ff565b80601f0160208091040260200160405190810160405280929190818152602001828054610c1a906115ff565b8015610c675780601f10610c3c57610100808354040283529160200191610c67565b820191906000526020600020905b815481529060010190602001808311610c4a57829003601f168201915b5050505050905084565b60003411610cb4576040517f08c379a0000000000000000000000000000000000000000000000000000000008152600401610cab9061167d565b60405180910390fd5b34600260008373ffffffffffffffffffffffffffffffffffffffff1673ffffffffffffffffffffffffffffffffffffffff1681526020019081526020016000206000828254610d03919061169d565b925050819055507ff1b03f708b9c39f453fe3f0cef84164c7d6f7df836df0796e1e9c2bce6ee397e3334604051610d3b9291906116f3565b60405180910390a150565b828054610d52906115ff565b90600052602060002090601f016020900481019282610d745760008555610dbb565b82601f10610d8d57805160ff1916838001178555610dbb565b82800160010185558215610dbb579182015b82811115610dba578251825591602001919060010190610d9f565b5b509050610dc89190610dcc565b5090565b5b80821115610de5576000816000905550600101610dcd565b5090565b6000604051905090565b600080fd5b600080fd5b600073ffffffffffffffffffffffffffffffffffffffff82169050919050565b6000610e2882610dfd565b9050919050565b610e3881610e1d565b8114610e4357600080fd5b50565b600081359050610e5581610e2f565b92915050565b600060208284031215610e7157610e70610df3565b5b6000610e7f84828501610e46565b91505092915050565b6000819050919050565b610e9b81610e88565b82525050565b6000602082019050610eb66000830184610e92565b92915050565b610ec581610e88565b8114610ed057600080fd5b50565b600081359050610ee281610ebc565b92915050565b600060208284031215610efe57610efd610df3565b5b6000610f0c84828501610ed3565b91505092915050565b600080fd5b600080fd5b6000601f19601f8301169050919050565b7f4e487b7100000000000000000000000000000000000000000000000000000000600052604160045260246000fd5b610f6882610f1f565b810181811067ffffffffffffffff82111715610f8757610f86610f30565b5b80604052505050565b6000610f9a610de9565b9050610fa68282610f5f565b919050565b600067ffffffffffffffff821115610fc657610fc5610f30565b5b610fcf82610f1f565b9050602081019050919050565b82818337600083830152505050565b6000610ffe610ff984610fab565b610f90565b90508281526020810184848401111561101a57611019610f1a565b5b611025848285610fdc565b509392505050565b600082601f83011261104257611041610f15565b5b8135611052848260208601610feb565b91505092915050565b6000806000806080858703121561107557611074610df3565b5b600085013567ffffffffffffffff81111561109357611092610df8565b5b61109f8782880161102d565b945050602085013567ffffffffffffffff8111156110c0576110bf610df8565b5b6110cc8782880161102d565b935050604085013567ffffffffffffffff8111156110ed576110ec610df8565b5b6110f98782880161102d565b925050606085013567ffffffffffffffff81111561111a57611119610df8565b5b6111268782880161102d565b91505092959194509250565b6000806040838503121561114957611148610df3565b5b600061115785828601610e46565b925050602061116885828601610ed3565b9150509250929050565b61117b81610e1d565b82525050565b600081519050919050565b600082825260208201905092915050565b60005b838110156111bb5780820151818401526020810190506111a0565b838111156111ca576000848401525b50505050565b60006111db82611181565b6111e5818561118c565b93506111f581856020860161119d565b6111fe81610f1f565b840191505092915050565b600060e08201905061121e600083018a610e92565b61122b6020830189611172565b818103604083015261123d81886111d0565b9050818103606083015261125181876111d0565b9050818103608083015261126581866111d0565b905081810360a083015261127981856111d0565b905061128860c0830184610e92565b98975050505050505050565b60008060008060008060c087890312156112b1576112b0610df3565b5b60006112bf89828a01610ed3565b965050602087013567ffffffffffffffff8111156112e0576112df610df8565b5b6112ec89828a0161102d565b955050604087013567ffffffffffffffff81111561130d5761130c610df8565b5b61131989828a0161102d565b945050606061132a89828a01610ed3565b935050608087013567ffffffffffffffff81111561134b5761134a610df8565b5b61135789828a0161102d565b92505060a087013567ffffffffffffffff81111561137857611377610df8565b5b61138489828a0161102d565b9150509295509295509295565b600060808201905081810360008301526113ab81876111d0565b905081810360208301526113bf81866111d0565b905081810360408301526113d381856111d0565b905081810360608301526113e781846111d0565b905095945050505050565b7f20457863656564656420436c61696d2053616c646f0000000000000000000000600082015250565b600061142860158361118c565b9150611433826113f2565b602082019050919050565b600060208201905081810360008301526114578161141b565b9050919050565b7f4e487b7100000000000000000000000000000000000000000000000000000000600052601160045260246000fd5b600061149882610e88565b91506114a383610e88565b9250828210156114b6576114b561145e565b5b828203905092915050565b60006060820190506114d66000830186611172565b6114e36020830185611172565b6114f06040830184610e92565b949350505050565b7f20457863656564656420526566756e642053616c646f00000000000000000000600082015250565b600061152e60168361118c565b9150611539826114f8565b602082019050919050565b6000602082019050818103600083015261155d81611521565b9050919050565b7f456d70747920457468657273204265696e6720526566756e6465640000000000600082015250565b600061159a601b8361118c565b91506115a582611564565b602082019050919050565b600060208201905081810360008301526115c98161158d565b9050919050565b7f4e487b7100000000000000000000000000000000000000000000000000000000600052602260045260246000fd5b6000600282049050600182168061161757607f821691505b6020821081141561162b5761162a6115d0565b5b50919050565b7f456d70747920457468657273204265696e672053656e74000000000000000000600082015250565b600061166760178361118c565b915061167282611631565b602082019050919050565b600060208201905081810360008301526116968161165a565b9050919050565b60006116a882610e88565b91506116b383610e88565b9250827fffffffffffffffffffffffffffffffffffffffffffffffffffffffffffffffff038211156116e8576116e761145e565b5b828201905092915050565b60006040820190506117086000830185611172565b6117156020830184610e92565b939250505056fea2646970667358221220ac9c31f81ed7a3178a07f91fe2f89ad8a99d23b934480ff6fb5ff642d07b57b664736f6c634300080c0033",
  "immutableReferences": {},
  "source": "pragma solidity >=0.7.0 <0.9.0;\npragma experimental ABIEncoderV2;\ncontract MyContract {\n    \n    mapping(uint=>ProductDetail) public productDetail;\n\n    mapping(address=> WalletPerson) public wallets;\n\n    mapping(address=>uint) public balances;\n    event TransferReceived(address _from, uint _amount);\n    event TransferSent(address _from, address _destAddr, uint _amount);\n\n    struct ProductDetail{\n        uint productID;\n        address owner;\n        string name;\n        string category;\n        string photo;\n        string description;\n        uint256 price;\n    }\n    \n    struct WalletPerson{\n        string name;\n        string photo;\n        string email;\n        string profesi;\n    }\n    function receive(address destAddr) external payable{\n        require(msg.value > 0,\"Empty Ethers Being Sent\");\n        balances[destAddr] += msg.value;\n        emit TransferReceived(msg.sender, msg.value);\n    }\n\n    function withdraw(uint amount) public payable {\n        require(balances[msg.sender] >= amount, \" Exceeded Claim Saldo\");\n        payable(msg.sender).transfer(amount);\n        balances[msg.sender] -= amount;\n        emit TransferSent(address(this),msg.sender, amount);\n    }\n\n    function refund(address destAddr,uint amount) external payable{\n        require(balances[destAddr] >= amount, \" Exceeded Refund Saldo\");\n        require(amount > 0,\"Empty Ethers Being Refunded\");\n        payable(destAddr).transfer(amount);\n        balances[destAddr] -= amount;\n        emit TransferSent(address(this),msg.sender, amount);\n    }\n\n    function addProduct(uint productID,string memory _name,string memory _desc, uint256 _price, string memory _category,\n                        string memory _photo) public {\n        \n        productDetail[productID]= ProductDetail(productID,msg.sender,_name,_category,_photo,_desc,_price);\n    }\n\n    function editProduct(uint productID,string memory _name,string memory _desc, uint256 _price, string memory _category,\n                        string memory _photo) public {\n        ProductDetail storage prod= productDetail[productID];\n        prod.name = _name;\n        prod.category = _category;\n        prod.photo = _photo;\n        prod.description = _desc;\n        prod.price = _price;\n\n    }\n    \n    \n\n    function registerAccount(string memory _name,string memory _photo, string memory _email,string memory _profesi) public {\n        WalletPerson storage person= wallets[msg.sender];\n        person.name= _name;\n        person.photo = _photo;\n        person.email = _email;\n        person.profesi= _profesi;\n        \n        // wallets[msg.sender] = WalletPerson({name: _name, gender : Gender.Man, photo : \"\" , email : _email , order: new Order[]()});\n    }\n\n\n  \n\n    \n\n}",
  "sourcePath": "/Users/oscar/Documents/research project jurnal/WebApp/frontend/contracts/MyContract.sol",
  "compiler": {
    "name": "solc",
    "version": "0.8.12+commit.f00d7308.Emscripten.clang"
  },
  "schemaVersion": "3.4.6",
  "updatedAt": "2022-05-24T11:59:04.877Z",
  "networkType": "ethereum",
  "devdoc": {
    "kind": "dev",
    "methods": {},
    "version": 1
  },
  "userdoc": {
    "kind": "user",
    "methods": {},
    "version": 1
  }
}