{
  "contractName": "MyContract",
  "abi": [
    {
      "anonymous": false,
      "inputs": [
        {
          "indexed": false,
          "internalType": "string",
          "name": "_name",
          "type": "string"
        },
        {
          "indexed": false,
          "internalType": "string",
          "name": "_desc",
          "type": "string"
        },
        {
          "indexed": false,
          "internalType": "uint256",
          "name": "_price",
          "type": "uint256"
        }
      ],
      "name": "AddingProduct",
      "type": "event"
    },
    {
      "inputs": [
        {
          "internalType": "uint256",
          "name": "",
          "type": "uint256"
        }
      ],
      "name": "listProduct",
      "outputs": [
        {
          "internalType": "string",
          "name": "name",
          "type": "string"
        },
        {
          "internalType": "uint256",
          "name": "price",
          "type": "uint256"
        },
        {
          "internalType": "address",
          "name": "owner",
          "type": "address"
        },
        {
          "internalType": "uint256",
          "name": "rating",
          "type": "uint256"
        },
        {
          "internalType": "string",
          "name": "category",
          "type": "string"
        },
        {
          "internalType": "string",
          "name": "photo",
          "type": "string"
        },
        {
          "components": [
            {
              "internalType": "string[]",
              "name": "comments",
              "type": "string[]"
            },
            {
              "internalType": "address[]",
              "name": "person",
              "type": "address[]"
            }
          ],
          "internalType": "struct MyContract.Comment",
          "name": "comment",
          "type": "tuple"
        }
      ],
      "stateMutability": "view",
      "type": "function",
      "constant": true
    },
    {
      "inputs": [
        {
          "internalType": "address",
          "name": "",
          "type": "address"
        }
      ],
      "name": "wallets",
      "outputs": [
        {
          "internalType": "string",
          "name": "name",
          "type": "string"
        },
        {
          "internalType": "enum MyContract.Gender",
          "name": "gender",
          "type": "uint8"
        },
        {
          "internalType": "string",
          "name": "photo",
          "type": "string"
        },
        {
          "internalType": "string",
          "name": "email",
          "type": "string"
        }
      ],
      "stateMutability": "view",
      "type": "function",
      "constant": true
    },
    {
      "inputs": [
        {
          "internalType": "string",
          "name": "_name",
          "type": "string"
        },
        {
          "internalType": "string",
          "name": "_desc",
          "type": "string"
        },
        {
          "internalType": "uint256",
          "name": "_price",
          "type": "uint256"
        },
        {
          "internalType": "string",
          "name": "_category",
          "type": "string"
        },
        {
          "internalType": "string",
          "name": "_photo",
          "type": "string"
        }
      ],
      "name": "addProduct",
      "outputs": [],
      "stateMutability": "nonpayable",
      "type": "function"
    },
    {
      "inputs": [
        {
          "internalType": "string",
          "name": "_comment",
          "type": "string"
        },
        {
          "internalType": "uint256",
          "name": "_index",
          "type": "uint256"
        }
      ],
      "name": "addComments",
      "outputs": [],
      "stateMutability": "nonpayable",
      "type": "function"
    },
    {
      "inputs": [
        {
          "internalType": "uint256",
          "name": "_index",
          "type": "uint256"
        }
      ],
      "name": "giveRating",
      "outputs": [],
      "stateMutability": "nonpayable",
      "type": "function"
    },
    {
      "inputs": [
        {
          "internalType": "string",
          "name": "_name",
          "type": "string"
        },
        {
          "internalType": "string",
          "name": "_email",
          "type": "string"
        }
      ],
      "name": "registerAccount",
      "outputs": [],
      "stateMutability": "nonpayable",
      "type": "function"
    }
  ],
  "bytecode": "0x608060405234801561001057600080fd5b5061168d806100206000396000f3fe608060405234801561001057600080fd5b50600436106100625760003560e01c80631337638a146100675780634f67fc24146100835780638890fe981461009f57806389b08f11146100d5578063dc104f8014610108578063ddc7b6a714610124575b600080fd5b610081600480360381019061007c9190610e76565b610140565b005b61009d60048036038101906100989190610f61565b6103a7565b005b6100b960048036038101906100b49190610fbd565b610496565b6040516100cc97969594939291906112d0565b60405180910390f35b6100ef60048036038101906100ea9190611387565b610811565b6040516100ff949392919061142b565b60405180910390f35b610122600480360381019061011d9190610fbd565b6109e6565b005b61013e60048036038101906101399190611485565b610a26565b005b60006040518060400160405280600067ffffffffffffffff81111561016857610167610d15565b5b60405190808252806020026020018201604052801561019b57816020015b60608152602001906001900390816101865790505b508152602001600067ffffffffffffffff8111156101bc576101bb610d15565b5b6040519080825280602002602001820160405280156101ea5781602001602082028036833780820191505090505b50815250905060006040518060e001604052808881526020018681526020013373ffffffffffffffffffffffffffffffffffffffff1681526020016000815260200185815260200184815260200183815250905060008190806001815401808255809150506001900390600052602060002090600802016000909190919091506000820151816000019080519060200190610286929190610af5565b506020820151816001015560408201518160020160006101000a81548173ffffffffffffffffffffffffffffffffffffffff021916908373ffffffffffffffffffffffffffffffffffffffff1602179055506060820151816003015560808201518160040190805190602001906102fe929190610af5565b5060a082015181600501908051906020019061031b929190610af5565b5060c0820151816006016000820151816000019080519060200190610341929190610b7b565b50602082015181600101908051906020019061035e929190610bdb565b50505050507f6300d44c9115cd94371f6da71b0002c2ae7c0ce86396003ec29dabe0b28f2544878787604051610396939291906114fd565b60405180910390a150505050505050565b600081815481106103bb576103ba611542565b5b906000526020600020906008020160060160000182908060018154018082558091505060019003906000526020600020016000909190919091509080519060200190610408929190610af5565b506000818154811061041d5761041c611542565b5b9060005260206000209060080201600601600101339080600181540180825580915050600190039060005260206000200160009091909190916101000a81548173ffffffffffffffffffffffffffffffffffffffff021916908373ffffffffffffffffffffffffffffffffffffffff1602179055505050565b600081815481106104a657600080fd5b90600052602060002090600802016000915090508060000180546104c9906115a0565b80601f01602080910402602001604051908101604052809291908181526020018280546104f5906115a0565b80156105425780601f1061051757610100808354040283529160200191610542565b820191906000526020600020905b81548152906001019060200180831161052557829003601f168201915b5050505050908060010154908060020160009054906101000a900473ffffffffffffffffffffffffffffffffffffffff1690806003015490806004018054610589906115a0565b80601f01602080910402602001604051908101604052809291908181526020018280546105b5906115a0565b80156106025780601f106105d757610100808354040283529160200191610602565b820191906000526020600020905b8154815290600101906020018083116105e557829003601f168201915b505050505090806005018054610617906115a0565b80601f0160208091040260200160405190810160405280929190818152602001828054610643906115a0565b80156106905780601f1061066557610100808354040283529160200191610690565b820191906000526020600020905b81548152906001019060200180831161067357829003601f168201915b5050505050908060060160405180604001604052908160008201805480602002602001604051908101604052809291908181526020016000905b828210156107765783829060005260206000200180546106e9906115a0565b80601f0160208091040260200160405190810160405280929190818152602001828054610715906115a0565b80156107625780601f1061073757610100808354040283529160200191610762565b820191906000526020600020905b81548152906001019060200180831161074557829003601f168201915b5050505050815260200190600101906106ca565b5050505081526020016001820180548060200260200160405190810160405280929190818152602001828054801561080357602002820191906000526020600020905b8160009054906101000a900473ffffffffffffffffffffffffffffffffffffffff1673ffffffffffffffffffffffffffffffffffffffff16815260200190600101908083116107b9575b505050505081525050905087565b6002602052806000526040600020600091509050806000018054610834906115a0565b80601f0160208091040260200160405190810160405280929190818152602001828054610860906115a0565b80156108ad5780601f10610882576101008083540402835291602001916108ad565b820191906000526020600020905b81548152906001019060200180831161089057829003601f168201915b5050505050908060010160009054906101000a900460ff16908060020180546108d5906115a0565b80601f0160208091040260200160405190810160405280929190818152602001828054610901906115a0565b801561094e5780601f106109235761010080835404028352916020019161094e565b820191906000526020600020905b81548152906001019060200180831161093157829003601f168201915b505050505090806003018054610963906115a0565b80601f016020809104026020016040519081016040528092919081815260200182805461098f906115a0565b80156109dc5780601f106109b1576101008083540402835291602001916109dc565b820191906000526020600020905b8154815290600101906020018083116109bf57829003601f168201915b5050505050905084565b6001600082815481106109fc576109fb611542565b5b90600052602060002090600802016003016000828254610a1c9190611601565b9250508190555050565b6000600260003373ffffffffffffffffffffffffffffffffffffffff1673ffffffffffffffffffffffffffffffffffffffff168152602001908152602001600020905082816000019080519060200190610a81929190610af5565b5060018160010160006101000a81548160ff02191690836001811115610aaa57610aa96113b4565b5b021790555060405180602001604052806000815250816002019080519060200190610ad6929190610af5565b5081816003019080519060200190610aef929190610af5565b50505050565b828054610b01906115a0565b90600052602060002090601f016020900481019282610b235760008555610b6a565b82601f10610b3c57805160ff1916838001178555610b6a565b82800160010185558215610b6a579182015b82811115610b69578251825591602001919060010190610b4e565b5b509050610b779190610c65565b5090565b828054828255906000526020600020908101928215610bca579160200282015b82811115610bc9578251829080519060200190610bb9929190610af5565b5091602001919060010190610b9b565b5b509050610bd79190610c82565b5090565b828054828255906000526020600020908101928215610c54579160200282015b82811115610c535782518260006101000a81548173ffffffffffffffffffffffffffffffffffffffff021916908373ffffffffffffffffffffffffffffffffffffffff16021790555091602001919060010190610bfb565b5b509050610c619190610c65565b5090565b5b80821115610c7e576000816000905550600101610c66565b5090565b5b80821115610ca25760008181610c999190610ca6565b50600101610c83565b5090565b508054610cb2906115a0565b6000825580601f10610cc45750610ce3565b601f016020900490600052602060002090810190610ce29190610c65565b5b50565b6000604051905090565b600080fd5b600080fd5b600080fd5b600080fd5b6000601f19601f8301169050919050565b7f4e487b7100000000000000000000000000000000000000000000000000000000600052604160045260246000fd5b610d4d82610d04565b810181811067ffffffffffffffff82111715610d6c57610d6b610d15565b5b80604052505050565b6000610d7f610ce6565b9050610d8b8282610d44565b919050565b600067ffffffffffffffff821115610dab57610daa610d15565b5b610db482610d04565b9050602081019050919050565b82818337600083830152505050565b6000610de3610dde84610d90565b610d75565b905082815260208101848484011115610dff57610dfe610cff565b5b610e0a848285610dc1565b509392505050565b600082601f830112610e2757610e26610cfa565b5b8135610e37848260208601610dd0565b91505092915050565b6000819050919050565b610e5381610e40565b8114610e5e57600080fd5b50565b600081359050610e7081610e4a565b92915050565b600080600080600060a08688031215610e9257610e91610cf0565b5b600086013567ffffffffffffffff811115610eb057610eaf610cf5565b5b610ebc88828901610e12565b955050602086013567ffffffffffffffff811115610edd57610edc610cf5565b5b610ee988828901610e12565b9450506040610efa88828901610e61565b935050606086013567ffffffffffffffff811115610f1b57610f1a610cf5565b5b610f2788828901610e12565b925050608086013567ffffffffffffffff811115610f4857610f47610cf5565b5b610f5488828901610e12565b9150509295509295909350565b60008060408385031215610f7857610f77610cf0565b5b600083013567ffffffffffffffff811115610f9657610f95610cf5565b5b610fa285828601610e12565b9250506020610fb385828601610e61565b9150509250929050565b600060208284031215610fd357610fd2610cf0565b5b6000610fe184828501610e61565b91505092915050565b600081519050919050565b600082825260208201905092915050565b60005b83811015611024578082015181840152602081019050611009565b83811115611033576000848401525b50505050565b600061104482610fea565b61104e8185610ff5565b935061105e818560208601611006565b61106781610d04565b840191505092915050565b61107b81610e40565b82525050565b600073ffffffffffffffffffffffffffffffffffffffff82169050919050565b60006110ac82611081565b9050919050565b6110bc816110a1565b82525050565b600081519050919050565b600082825260208201905092915050565b6000819050602082019050919050565b600082825260208201905092915050565b600061110a82610fea565b61111481856110ee565b9350611124818560208601611006565b61112d81610d04565b840191505092915050565b600061114483836110ff565b905092915050565b6000602082019050919050565b6000611164826110c2565b61116e81856110cd565b935083602082028501611180856110de565b8060005b858110156111bc578484038952815161119d8582611138565b94506111a88361114c565b925060208a01995050600181019050611184565b50829750879550505050505092915050565b600081519050919050565b600082825260208201905092915050565b6000819050602082019050919050565b611203816110a1565b82525050565b600061121583836111fa565b60208301905092915050565b6000602082019050919050565b6000611239826111ce565b61124381856111d9565b935061124e836111ea565b8060005b8381101561127f5781516112668882611209565b975061127183611221565b925050600181019050611252565b5085935050505092915050565b600060408301600083015184820360008601526112a98282611159565b915050602083015184820360208601526112c3828261122e565b9150508091505092915050565b600060e08201905081810360008301526112ea818a611039565b90506112f96020830189611072565b61130660408301886110b3565b6113136060830187611072565b81810360808301526113258186611039565b905081810360a08301526113398185611039565b905081810360c083015261134d818461128c565b905098975050505050505050565b611364816110a1565b811461136f57600080fd5b50565b6000813590506113818161135b565b92915050565b60006020828403121561139d5761139c610cf0565b5b60006113ab84828501611372565b91505092915050565b7f4e487b7100000000000000000000000000000000000000000000000000000000600052602160045260246000fd5b600281106113f4576113f36113b4565b5b50565b6000819050611405826113e3565b919050565b6000611415826113f7565b9050919050565b6114258161140a565b82525050565b600060808201905081810360008301526114458187611039565b9050611454602083018661141c565b81810360408301526114668185611039565b9050818103606083015261147a8184611039565b905095945050505050565b6000806040838503121561149c5761149b610cf0565b5b600083013567ffffffffffffffff8111156114ba576114b9610cf5565b5b6114c685828601610e12565b925050602083013567ffffffffffffffff8111156114e7576114e6610cf5565b5b6114f385828601610e12565b9150509250929050565b600060608201905081810360008301526115178186611039565b9050818103602083015261152b8185611039565b905061153a6040830184611072565b949350505050565b7f4e487b7100000000000000000000000000000000000000000000000000000000600052603260045260246000fd5b7f4e487b7100000000000000000000000000000000000000000000000000000000600052602260045260246000fd5b600060028204905060018216806115b857607f821691505b602082108114156115cc576115cb611571565b5b50919050565b7f4e487b7100000000000000000000000000000000000000000000000000000000600052601160045260246000fd5b600061160c82610e40565b915061161783610e40565b9250827fffffffffffffffffffffffffffffffffffffffffffffffffffffffffffffffff0382111561164c5761164b6115d2565b5b82820190509291505056fea264697066735822122076c9d53e384aca6212ac1f0840f60d668267bc853eec9c1e3da6a20e065999ee64736f6c634300080c0033",
  "immutableReferences": {},
  "source": "pragma solidity >=0.7.0 <0.9.0;\n\ncontract MyContract {\n    \n    Product[] public listProduct;\n    mapping(address=> Order) orderList;\n    mapping(address=> WalletPerson) public wallets;\n    enum Status{ Waiting, Confirmation, Finished}\n    enum Gender { Woman, Man}\n    event AddingProduct(string _name, string _desc, uint _price);\n\n    struct Product{\n        string name;\n        uint256 price;\n        address owner;\n        uint256 rating;\n        string category;\n        string photo;\n        Comment comment;\n        \n    }\n\n    struct Comment{\n        string[] comments;\n        address[] person;\n    }\n    \n    struct Order{\n        Status status;\n        uint product_id;\n        address seller;\n        address owner;\n        string email;\n        OrderDetail detail;\n    }\n\n    struct OrderDetail{\n        Status[] status;\n        uint256[] date;\n    }\n\n    struct WalletPerson{\n        string name;\n        Gender gender;\n        string photo;\n        string email;\n        Order[] order;\n    }\n\n    function addProduct(string memory _name,string memory _desc, uint256 _price, string memory _category,\n                        string memory _photo) public {\n        // Comment[] storage _comment = ;\n        // mengalokasikan memory sementara pada variabel baru\n        Comment memory _comment= Comment(new string[](0),new address[](0));\n        Product memory _product = Product(_name,_price,msg.sender,0,_category,_photo,_comment);\n        // menambahkan produk kedalam list\n        listProduct.push(_product);\n        emit AddingProduct(_name,_desc,_price);\n    }\n    \n    function addComments(string memory _comment,uint _index) public {\n        // menambahkan comment pada product\n        listProduct[_index].comment.comments.push(_comment);\n        listProduct[_index].comment.person.push(msg.sender);\n    }\n\n    function giveRating(uint _index) public {\n        listProduct[_index].rating += 1;\n    }\n\n    function registerAccount(string memory _name, string memory _email) public {\n        WalletPerson storage person= wallets[msg.sender];\n        person.name= _name;\n        person.gender = Gender.Man;\n        person.photo = \"\";\n        person.email = _email;\n        \n        // wallets[msg.sender] = WalletPerson({name: _name, gender : Gender.Man, photo : \"\" , email : _email , order: new Order[]()});\n    }\n\n    // function addProduct()\n}",
  "sourcePath": "/Users/oscar/Documents/research project jurnal/WebApp/frontend/contracts/MyContract.sol",
  "compiler": {
    "name": "solc",
    "version": "0.8.12+commit.f00d7308.Emscripten.clang"
  },
  "schemaVersion": "3.4.6",
  "updatedAt": "2022-03-28T03:21:45.105Z",
  "networkType": "ethereum",
  "devdoc": {
    "kind": "dev",
    "methods": {},
    "version": 1
  },
  "userdoc": {
    "kind": "user",
    "methods": {},
    "version": 1
  }
}